:100000000C945D000C947A000C947A000C947A00A5
:100010000C947A000C947A000C947A000C947A0078
:100020000C947A000C947A000C947A000C947A0068
:100030000C947A000C947A000C947A000C947A0058
:100040000C9450020C947A000C947A000C947A0070
:100050000C947A000C947A000C947A000C947A0038
:100060000C947A000C947A00000000080002010051
:100070000003040700000000000000000000000072
:10008000250028002B0000000000240027002A0083
:10009000040404040404040402020202020203032E
:1000A0000303030301020408102040800102040836
:1000B00010200102040810200F0311241FBECFEFEF
:1000C000D8E0DEBFCDBF21E0A0E0B1E001C01D92CD
:1000D000A332B207E1F710E0CDE5D0E004C02197EC
:1000E000FE010E941703CC35D107C9F70E949A027E
:1000F0000C941D030C9400003FB7F89480911F01ED
:1001000090912001A0912101B091220126B5A89BD8
:1001100005C02F3F19F00196A11DB11D3FBFBA2F99
:10012000A92F982F8827820F911DA11DB11DBC01F9
:10013000CD0142E0660F771F881F991F4A95D1F7BE
:10014000089580E090E0892B49F080E090E0892BD1
:1001500029F00E94000081110C94000008950F9373
:100160001F93FC01408151816281738141155105CA
:100170006105710571F081E0009114011091150184
:10018000209116013091170140175107620773073C
:1001900008F080E01F910F9108958F929F92AF9287
:1001A000BF92CF92DF92EF92FF92CF93DF938FB700
:1001B000F89480901B0190901C01A0901D01B090BC
:1001C0001E018FBF8092140190921501A09216011A
:1001D000B092170140910E0150910F0160911001F2
:1001E00070911101411551056105710531F081E0F2
:1001F000481559056A057B0508F080E0C091180193
:10020000DC2FD170D82BD0FBC0F9C093180185E04A
:1002100091E00E94AF00C2FB992790F9892B80FBE7
:10022000C2F9C0931801DD2379F091E09093120197
:1002300080920E0190920F01A0921001B0921101D4
:10024000C260C064C0931801882391F1C091190164
:10025000750164018AEFC80ED11CE11CF11C85E018
:1002600091E00E94AF008111E1C090E0CC23A1F0A9
:1002700040910A0150910B0160910C0170910D01A8
:10028000481559056A057B0508F4E5C0C416D5066E
:10029000E606F70608F4DFC08091180190FB83F9A9
:1002A00084FB222720F9922B90FB84F9809318017C
:1002B0008091180184FF19C083FF0AC09091030147
:1002C00081E08927981721F08093030191E001C014
:1002D00090E08091180190FB85F986FB222720F998
:1002E000922B90FB86F9809318018091180186FF6C
:1002F0006CC0609103011092000181FF66C041EB68
:1003000050E0FA0174918DE990E0FC0124912223E0
:1003100099F030E0220F331FF901EA57FF4FA59102
:10032000B491F901E458FF4F259134913FB7F89407
:100330002C91272B2C933FBFE5E7F0E02491FA01A5
:100340004491FC019491992309F43CC0222339F192
:10035000233091F038F42130A9F0223001F584B532
:100360008F7D12C0273091F02830A1F02430B9F4ED
:10037000809180008F7D03C0809180008F77809373
:1003800080000DC084B58F7784BD09C08091B00016
:100390008F7703C08091B0008F7D8093B000E92FEC
:1003A000F0E0EE0FFF1FE458FF4FA591B4919FB707
:1003B000F8948C91611103C04095482301C0482BEB
:1003C0004C939FBF81E0809301018091000180FFE9
:1003D00003C08E7F809300011092180180910E015E
:1003E00090910F01A0911001B09111010097A1050A
:1003F000B10569F040911401509115016091160109
:100400007091170184179507A607B707A8F185E033
:1004100091E00E94AF008823C1F110920501109273
:10042000060110920701109208012FC081E080930D
:100430000901C0920A01D0920B01E0920C01F092E6
:100440000D01C0920501D0920601E0920701F092E1
:10045000080191E00BCFC0920A01D0920B01E0920B
:100460000C01F0920D01C0920501D0920601E092BC
:100470000701F092080110CF10920E0110920F01A7
:100480001092100110921101C2CFDF91CF91FF9015
:10049000EF90DF90CF90BF90AF909F908F90089596
:1004A0001F920F920FB60F9211242F933F938F93A9
:1004B0009F93AF93BF9380911B0190911C01A091DA
:1004C0001D01B0911E0130911A0123E0230F2D3739
:1004D00020F40196A11DB11D05C026E8230F029648
:1004E000A11DB11D20931A0180931B0190931C0143
:1004F000A0931D01B0931E0180911F0190912001D6
:10050000A0912101B09122010196A11DB11D8093FE
:100510001F0190932001A0932101B0932201BF916C
:10052000AF919F918F913F912F910F900FBE0F90A0
:100530001F901895789484B5826084BD84B58160DD
:1005400084BD85B5826085BD85B5816085BD80919E
:100550006E00816080936E00109281008091810016
:10056000826080938100809181008160809381000E
:10057000809180008160809380008091B1008460D0
:100580008093B1008091B00081608093B000809131
:100590007A00846080937A0080917A0082608093F0
:1005A0007A0080917A00816080937A0080917A004D
:1005B000806880937A001092C1000E947C004B01F9
:1005C0005C0184E6C82ED12CE12CF12C0E947C0029
:1005D000DC01CB0188199909AA09BB09883E93401F
:1005E000A105B10598F321E0C21AD108E108F1088C
:1005F00088EE880E83E0981EA11CB11CC114D104A2
:10060000E104F10419F781E0809319010E94CD0003
:10061000109219010E94CD000E94A100FBCF809191
:100620001801807F85678F77809318010895EE0FFA
:0E063000FF1F0590F491E02D0994F894FFCF80
:00000001FF
