:100000000C945D000C947A000C947A000C947A00A5
:100010000C947A000C947A000C947A000C947A0078
:100020000C947A000C947A000C947A000C947A0068
:100030000C947A000C947A000C947A000C947A0058
:100040000C9436020C947A000C947A000C947A008A
:100050000C947A000C947A000C947A000C947A0038
:100060000C947A000C947A00000000080002010051
:100070000003040700000000000000000000000072
:10008000250028002B0000000000240027002A0083
:10009000040404040404040402020202020203032E
:1000A0000303030301020408102040800102040836
:1000B0001020010204081020F50211241FBECFEF0A
:1000C000D8E0DEBFCDBF21E0A0E0B1E001C01D92CD
:1000D000A032B207E1F710E0CDE5D0E004C02197EF
:1000E000FE010E94FD02CC35D107C9F70E948002B3
:1000F0000C9403030C9400003FB7F89480911C010A
:1001000090911D01A0911E01B0911F0126B5A89BE1
:1001100005C02F3F19F00196A11DB11D3FBFBA2F99
:10012000A92F982F8827820F911DA11DB11DBC01F9
:10013000CD0142E0660F771F881F991F4A95D1F7BE
:10014000089580E090E0892B49F080E090E0892BD1
:1001500029F00E94000081110C94000008950F9373
:100160001F93FC01408151816281738141155105CA
:100170006105710571F081E000911101109112018A
:100180002091130130911401401751076207730742
:1001900008F080E01F910F9108958F929F92AF9287
:1001A000BF92CF92DF92EF92FF92CF93DF938FB700
:1001B000F8948090180190901901A0901A01B090C5
:1001C0001B018FBF8092110190921201A092130126
:1001D000B092140140910C0150910D0160910E01FB
:1001E00070910F01411551056105710531F081E0F4
:1001F000481559056A057B0508F080E0C091150196
:10020000DC2FD170D82BD0FBC0F9C093150184E04E
:1002100091E00E94AF00C2FB992790F9892B80FBE7
:10022000C2F9C0931501DD2361F080920C01909218
:100230000D01A0920E01B0920F01C260C062C09386
:100240001501882391F1C0911601750164018AEFAF
:10025000C80ED11CE11CF11C84E091E00E94AF00AB
:100260008111CDC090E0CC23A1F0409108015091C4
:10027000090160910A0170910B01481559056A0541
:100280007B0508F4CEC0C416D506E606F70608F4CA
:10029000C8C08091150190FB83F984FB222720F9C7
:1002A000922B90FB84F9809315018091150184FFB6
:1002B00009C083FF07C02091020191E09227291312
:1002C0009093020185FF71C060910201909100013D
:1002D0009E7F9093000181FF68C041EB50E0FA01DE
:1002E00074918DE990E0FC012491222399F030E093
:1002F000220F331FF901EA57FF4FA591B491F9017D
:10030000E458FF4F259134913FB7F8942C91272B57
:100310002C933FBFE5E7F0E02491FA014491FC0102
:100320009491992309F43CC0222339F1233091F0B0
:1003300038F42130A9F0223001F584B58F7D12C048
:10034000273091F02830A1F02430B9F4809180005A
:100350008F7D03C0809180008F77809380000DC0D7
:1003600084B58F7784BD09C08091B0008F7703C0BA
:100370008091B0008F7D8093B000E92FF0E0EE0F08
:10038000FF1FE458FF4FA591B4919FB7F8948C914B
:10039000611103C04095482301C0482B4C939FBF77
:1003A000809100018E7F8093000110921501809151
:1003B0000C0190910D01A0910E01B0910F010097D9
:1003C000A105B10569F040911101509112016091B0
:1003D00013017091140184179507A607B70790F1D0
:1003E00084E091E00E94AF008823A9F110920401FB
:1003F0001092050110920601109207012CC0C092C4
:100400000801D0920901E0920A01F0920B01C0921A
:100410000401D0920501E0920601F092070191E0FB
:1004200022CFC0920801D0920901E0920A01F09215
:100430000B01C0920401D0920501E0920601F092F6
:10044000070127CF10920C0110920D0110920E019E
:1004500010920F01C5CFDF91CF91FF90EF90DF9009
:10046000CF90BF90AF909F908F9008951F920F9262
:100470000FB60F9211242F933F938F939F93AF93B7
:10048000BF938091180190911901A0911A01B09128
:100490001B013091170123E0230F2D3720F4019623
:1004A000A11DB11D05C026E8230F0296A11DB11D97
:1004B000209317018093180190931901A0931A01BA
:1004C000B0931B0180911C0190911D01A0911E0110
:1004D000B0911F010196A11DB11D80931C01909345
:1004E0001D01A0931E01B0931F01BF91AF919F9179
:1004F0008F913F912F910F900FBE0F901F901895E5
:10050000789484B5826084BD84B5816084BD85B5EE
:10051000826085BD85B5816085BD80916E008160FA
:1005200080936E00109281008091810082608093A0
:1005300081008091810081608093810080918000A2
:100540008160809380008091B10084608093B100CD
:100550008091B00081608093B00080917A008460C7
:1005600080937A0080917A00826080937A008091F3
:100570007A00816080937A0080917A00806880930D
:100580007A001092C1000E947C004B015C0184E65D
:10059000C82ED12CE12CF12C0E947C00DC01CB0177
:1005A00088199909AA09BB09883E9340A105B1059C
:1005B00098F321E0C21AD108E108F10888EE880E0C
:1005C00083E0981EA11CB11CC114D104E104F10404
:1005D00019F781E0809316010E94CD001092160158
:1005E0000E94CD000E94A100FBCF80911501807F69
:1005F00085618062809315010895EE0FFF1F0590BD
:0A060000F491E02D0994F894FFCF67
:00000001FF
