:100000000C945D000C947A000C947A000C947A00A5
:100010000C947A000C947A000C947A000C947A0078
:100020000C947A000C947A000C947A000C947A0068
:100030000C947A000C947A000C947A000C947A0058
:100040000C9436020C947A000C947A000C947A008A
:100050000C947A000C947A000C947A000C947A0038
:100060000C947A000C947A00000000002400270011
:100070002A0000000000250028002B0004040404CE
:100080000404040402020202020203030303030342
:10009000010204081020408001020408102001021F
:1000A00004081020000000080002010000030407FB
:1000B0000000000000000000F50211241FBECFEF79
:1000C000D8E0DEBFCDBF21E0A0E0B1E001C01D92CD
:1000D000AE31B207E1F710E0CDE5D0E004C02197E2
:1000E000FE010E94FD02CC35D107C9F70E948002B3
:1000F0000C9403030C9400003FB7F89480911A010C
:1001000090911B01A0911C01B0911D0126B5A89BE7
:1001100005C02F3F19F00196A11DB11D3FBFBA2F99
:10012000A92F982F8827820F911DA11DB11DBC01F9
:10013000CD0142E0660F771F881F991F4A95D1F7BE
:10014000089580E090E0892B49F080E090E0892BD1
:1001500029F00E94000081110C94000008950F9373
:100160001F93FC01408151816281738141155105CA
:100170006105710571F081E000910F01109110018E
:100180002091110130911201401751076207730746
:1001900008F080E01F910F9108958F929F92AF9287
:1001A000BF92CF92DF92EF92FF92CF93DF938FB700
:1001B000F8948090160190901701A0901801B090CB
:1001C00019018FBF80920F0190921001A09211012E
:1001D000B092120140910A0150910B0160910C0103
:1001E00070910D01411551056105710531F081E0F6
:1001F000481559056A057B0508F080E0C091130198
:10020000DC2FD170D82BD0FBC0F9C093130182E052
:1002100091E00E94AF00C2FB992790F9892B80FBE7
:10022000C2F9C0931301DD2361F080920A0190921C
:100230000B01A0920C01B0920D01C260C064C0938A
:100240001301882391F1C0911401750164018AEFB3
:10025000C80ED11CE11CF11C82E091E00E94AF00AD
:100260008111CDC090E0CC23A1F0409106015091C6
:1002700007016091080170910901481559056A0547
:100280007B0508F4CEC0C416D506E606F70608F4CA
:10029000C8C08091130190FB83F984FB222720F9C9
:1002A000922B90FB84F9809313018091130184FFBA
:1002B00013C083FF0AC09091000181E0892798173D
:1002C00021F08093000181E001C080E09091130152
:1002D00080FB95F9909313018091130186FF65C00F
:1002E000609100014DE950E0FA01749189E890E0D5
:1002F000FC012491222399F030E0220F331FF901F1
:10030000E859FF4FA591B491F901EE58FF4F25919F
:1003100034913FB7F8942C91272B2C933FBFE1EBFE
:10032000F0E02491FA014491FC019491992309F49D
:100330003CC0222339F1233091F038F42130A9F068
:10034000223001F584B58F7D12C0273091F028301E
:10035000A1F02430B9F4809180008F7D03C080919A
:1003600080008F77809380000DC084B58F7784BD27
:1003700009C08091B0008F7703C08091B0008F7D5D
:100380008093B000E92FF0E0EE0FFF1FEE58FF4F13
:10039000A591B4919FB7F8948C91611103C04095D9
:1003A000482301C0482B4C939FBF109213018091AA
:1003B0000A0190910B01A0910C01B0910D010097E1
:1003C000A105B10569F040910F01509110016091B4
:1003D00011017091120184179507A607B70790F1D4
:1003E00082E091E00E94AF008823A9F110920201FF
:1003F0001092030110920401109205012CC0C092CA
:100400000601D0920701E0920801F0920901C09222
:100410000201D0920301E0920401F092050191E003
:1004200022CFC0920601D0920701E0920801F0921B
:100430000901C0920201D0920301E0920401F092FE
:10044000050127CF10920A0110920B0110920C01A6
:1004500010920D01C5CFDF91CF91FF90EF90DF900B
:10046000CF90BF90AF909F908F9008951F920F9262
:100470000FB60F9211242F933F938F939F93AF93B7
:10048000BF938091160190911701A0911801B0912E
:1004900019013091150123E0230F2D3720F4019627
:1004A000A11DB11D05C026E8230F0296A11DB11D97
:1004B000209315018093160190931701A0931801C2
:1004C000B093190180911A0190911B01A0911C0118
:1004D000B0911D010196A11DB11D80931A01909349
:1004E0001B01A0931C01B0931D01BF91AF919F917F
:1004F0008F913F912F910F900FBE0F901F901895E5
:10050000789484B5826084BD84B5816084BD85B5EE
:10051000826085BD85B5816085BD80916E008160FA
:1005200080936E00109281008091810082608093A0
:1005300081008091810081608093810080918000A2
:100540008160809380008091B10084608093B100CD
:100550008091B00081608093B00080917A008460C7
:1005600080937A0080917A00826080937A008091F3
:100570007A00816080937A0080917A00806880930D
:100580007A001092C1000E947C004B015C0184E65D
:10059000C82ED12CE12CF12C0E947C00DC01CB0177
:1005A00088199909AA09BB09883E9340A105B1059C
:1005B00098F321E0C21AD108E108F10888EE880E0C
:1005C00083E0981EA11CB11CC114D104E104F10404
:1005D00019F781E0809314010E94CD00109214015C
:1005E0000E94CD000E94A100FBCF80911301807F6B
:1005F00085638064809313010895EE0FFF1F0590BB
:0A060000F491E02D0994F894FFCF67
:00000001FF
