:100000000C9484000C94A1000C94A1000C94A10009
:100010000C94A1000C94A1000C94A1000C94A100DC
:100020000C94A1000C94A1000C94A1000C94A100CC
:100030000C94A1000C94A1000C94A1000C94A100BC
:100040000C9412030C94A1000C94A1000C94A10038
:100050000C94A1000C94A1000C94A1000C94A1009C
:100060000C94A1000C94A10005FF04FF05FF03FF01
:1000700003FF6C010208000408001302FF000003E4
:100080002000FF000068003C02010800000800FF9B
:1000900000006A00C8006C00C9006E00C800700053
:1000A00000000000240027002A00000000002500B6
:1000B00028002B00040404040404040402020202C5
:1000C000020203030303030301020408102040801B
:1000D000010204081020010204081020000000089A
:1000E00000020100000304070000000000000000FF
:1000F0009C009800940087007A00720009010701B3
:10010000020116011401000111241FBECFEFD8E037
:10011000DEBFCDBF11E0A0E0B1E0ECEAFAE002C042
:1001200005900D92A431B107D9F721E0A4E1B1E027
:1001300001C01D92A034B207E1F70E945C030C9449
:1001400054050C9400003FB7F89480913C019091C5
:100150003D01A0913E01B0913F0126B5A89B05C08D
:100160002F3F19F00196A11DB11D3FBFBA2FA92F36
:10017000982F8827820F911DA11DB11DBC01CD01B3
:1001800042E0660F771F881F991F4A95D1F708959F
:1001900008950895CF93DF9300D0CDB7DEB790E0F8
:1001A0009C01220F331FF901E450FF4FA591B49138
:1001B000FD01E60FF71F4083FC01E25FFE4F8081E7
:1001C00082608083F901E051FF4F65917491655F12
:1001D0007F4F42E050E0CE0101960E944B052981FD
:1001E0003A81F901859194918F3F69F0E82FF0E011
:1001F000E25FFE4F808181608083F9018591949157
:100200002F5F3F4FF1CF0F900F90DF91CF91089567
:10021000CF93DF9300D01F92CDB7DEB7E82FF0E089
:10022000EE0FFF1FE051FF4F85919491680F791FEA
:1002300043E050E0CE0101960E944B0569817A812E
:100240008B810F900F900F90DF91CF9108950E94B6
:1002500008016F3FD1F0E62FF0E0EE0FFF1FE450F2
:10026000FF4F45915491769576957695982F929576
:10027000990F907E292F272B382F36953695369556
:10028000FA01E20FF31F8081089580E008950E9433
:1002900008016F3FE9F0E62FF0E0EE0FFF1FE4509A
:1002A000FF4F45915491769576957695982F929536
:1002B000990F907E292F272B382F36953695369516
:1002C000FA01E20FF31F60817181828193810895A9
:1002D00060E070E0CB010895FF920F931F93CF93DE
:1002E000DF93F82EE82FF0E0EE0FFF1FE450FF4FF2
:1002F0000591149162E070E00E9447010E9457044A
:10030000F80120813181EB01DD272617370709F13C
:10031000FE01E853FF4F4491FE01EC54FF4F24913E
:100320002223A1F030E0220F331FF901E056FF4FE6
:10033000A591B491F901E655FF4F259134912FB75E
:10034000F894EC913E2F342B3C932FBFF80171832E
:10035000608365E070E08F2D0E942701FE01E4526A
:10036000FF4F2491FE01E853FF4F9491FE01EC549E
:10037000FF4FE491EE2309F43BC0222339F12330EF
:1003800091F038F42130A9F0223001F524B52F7D09
:1003900012C0273091F02830A1F02430B9F4209118
:1003A00080002F7D03C0209180002F772093800054
:1003B0000DC024B52F7724BD09C02091B0002F7740
:1003C00003C02091B0002F7D2093B000F0E0EE0F2D
:1003D000FF1FE655FF4FA591B4912FB7F894EC910C
:1003E000811103C090959E2301C09E2B9C932FBF2B
:1003F000DF91CF911F910F91FF9008950E94080106
:100400006F3F79F0E62FF0E0E25FFE4F808190E0F1
:1004100077707F5F02C0959587957A95E2F7817036
:10042000089580E00895CF93DF93C82FE82FF0E080
:10043000EE0FFF1FE450FF4FA591B4911196DC9190
:1004400065E070E08C2F0E94FE01882319F041E0E6
:100450004D2706C062E070E08C2F0E94FE01482FFD
:100460004D1739F061E070E08C2FDF91CF910C9443
:10047000CA00DF91CF9108952F923F924F925F92E1
:100480006F927F928F929F92AF92BF92CF92DF92A4
:10049000EF92FF920F931F93CF93C82F282E312CEA
:1004A000F101EE0FFF1FE450FF4F05911491809072
:1004B000330190903401A0903501B090360165E091
:1004C00070E08C2F0E94470120E030E04AE754E4BE
:1004D0000E94B6040E945E046B017C012B013C016A
:1004E000480C591C6A1C7B1C68E070E08C2F0E9431
:1004F000FE01220C331C220C331C811107C062E068
:1005000070E08C2F0E94FE018823C1F0C114D10439
:10051000E104F10439F062E070E08C2F0E942701C1
:10052000811145C0F8011082118212821382F101FB
:10053000E55EFE4F1082118212821382C101855E38
:100540009E4F5C01FC0180819181A281B381009763
:10055000A105B10509F454C0409133015091340113
:10056000609135017091360184179507A607B7078A
:1005700008F046C041E064E070E08C2F0E94CA00A1
:10058000F80140825182628273828091330190919E
:100590003401A0913501B0913601C80ED91EEA1E72
:1005A000FB1EF501C082D182E282F38229C0F801EC
:1005B00080819181A281B38188159905AA05BB0527
:1005C00030F0481659066A067B0608F0B7CFF801E6
:1005D0004082518262827382F101E55EFE4F80911A
:1005E000330190913401A0913501B09136018C0D09
:1005F0009D1DAE1DBF1D80839183A283B3839ECFBB
:10060000CF911F910F91FF90EF90DF90CF90BF900F
:10061000AF909F908F907F906F905F904F903F90A2
:100620002F9008951F920F920FB60F9211242F93BF
:100630003F938F939F93AF93BF9380913801909195
:100640003901A0913A01B0913B013091370123E08B
:10065000230F2D3720F40196A11DB11D05C026E8FA
:10066000230F0296A11DB11D2093370180933801FD
:1006700090933901A0933A01B0933B0180913C01E2
:1006800090913D01A0913E01B0913F010196A11DC5
:10069000B11D80933C0190933D01A0933E01B09326
:1006A0003F01BF91AF919F918F913F912F910F90FB
:1006B0000FBE0F901F901895CF93DF9300D0CDB74A
:1006C000DEB7789484B5826084BD84B5816084BDD2
:1006D00085B5826085BD85B5816085BD80916E00E0
:1006E000816080936E001092810080918100826011
:1006F000809381008091810081608093810080914E
:1007000080008160809380008091B100846080933C
:10071000B1008091B00081608093B00080917A0038
:10072000846080937A0080917A00826080937A005E
:1007300080917A00816080937A0080917A0080684D
:1007400080937A001092C1000E94A3004B015C01CB
:1007500054E6C52ED12CE12CF12C0E94A300DC0123
:10076000CB0188199909AA09BB09883E9340A105C4
:10077000B10558F021E0C21AD108E108F10888EE6D
:10078000880E83E0981EA11CB11CC114D104E104A1
:10079000F10419F73EE0A32E31E0B32E06E00A0D76
:1007A00040E0842E40E0942E8FB7F89440903801BA
:1007B0005090390160903A0170903B018FBF9BE1EE
:1007C000E92E91E0F92E2EE0C22E21E0D22EF60184
:1007D000D7014D915D916D917D9141155105610557
:1007E000710541F0441555056605770518F48081BB
:1007F0008160808331960E13ECCF2FB7F8948091EF
:10080000380190913901A0913A01B0913B012FBF7D
:100810008093330190933401A0933501B093360156
:1008200080EF682E80E0782E10E0F60181916F0154
:1008300080FF23C0F3016591749142E050E0CE0146
:1008400001960E944B05E981FA81812F0995F701F4
:1008500080819181A281B3810097A105B10569F0E2
:10086000409133015091340160913501709136010E
:1008700084179507A607B707A0F01F5FF4E0EF0EF7
:10088000F11C22E0620E711C163079F6F50111920E
:100890001A95E9F78114910409F486CF0E940000AB
:1008A00083CFF7011082118212821382E6CF0E9459
:1008B0005E046894B1110C94B00408950E949504EC
:1008C00088F09F5798F0B92F9927B751B0F0E1F011
:1008D000660F771F881F991F1AF0BA95C9F714C0C1
:1008E000B13091F00E94AF04B1E008950C94AF04D0
:1008F000672F782F8827B85F39F0B93FCCF38695FA
:1009000077956795B395D9F73EF490958095709556
:1009100061957F4F8F4F9F4F089557FD9058440F1B
:10092000551F59F05F3F71F04795880F97FB991F4E
:1009300061F09F3F79F0879508951216130614060B
:10094000551FF2CF4695F1DF08C016161706180698
:10095000991FF1CF86957105610508940895E89473
:10096000BB2766277727CB0197F908950E94C90412
:100970000C943A050E942C0538F00E94330520F0B3
:10098000952311F00C9423050C94290511240C9443
:10099000B0040E948D0470F3959FC1F3950F50E051
:1009A000551F629FF001729FBB27F00DB11D639F21
:1009B000AA27F00DB11DAA1F649F6627B00DA11DC7
:1009C000661F829F2227B00DA11D621F739FB00D6D
:1009D000A11D621F839FA00D611D221F749F3327DD
:1009E000A00D611D231F849F600D211D822F762F76
:1009F0006A2F11249F5750409AF0F1F088234AF053
:100A0000EE0FFF1FBB1F661F771F881F91505040BE
:100A1000A9F79E3F510580F00C9423050C94B00477
:100A20005F3FE4F3983ED4F3869577956795B79545
:100A3000F795E7959F5FC1F7FE2B880F911D96955F
:100A4000879597F9089597F99F6780E870E060E0CF
:100A500008959FEF80EC089500240A941616170657
:100A600018060906089500240A941216130614069F
:100A700005060895092E0394000C11F4882352F002
:100A8000BB0F40F4BF2B11F460FF04C06F5F7F4FBA
:100A90008F4F9F4F0895FB01DC0102C005900D921E
:0C0AA00041505040D8F70895F894FFCF63
:100AAC00FFFF00000050410001000000803EFFFFEE
:040ABC00FFFDFFFF3C
:00000001FF
