:100000000C945C000C9479000C9479000C947900A9
:100010000C9479000C9479000C9479000C9479007C
:100020000C9479000C9479000C9479000C9479006C
:100030000C9479000C9479000C9479000C9479005C
:100040000C9470020C9479000C9479000C94790053
:100050000C9479000C9479000C9479000C9479003C
:100060000C9479000C947900000000002400270013
:100070002A0000000000250028002B0004040404CE
:100080000404040402020202020203030303030342
:10009000010204081020408001020408102001021F
:1000A00004081020000000080002010000030407FB
:1000B000000000000000000011241FBECFEFD8E0B8
:1000C000DEBFCDBF11E0A0E0B1E0E2E6F6E002C0A5
:1000D00005900D92A831B107D9F721E0A8E1B1E070
:1000E00001C01D92A632B207E1F70E94BA020C9439
:1000F0002F030C9400003FB7F89480912201909157
:100100002301A0912401B091250126B5A89B05C02B
:100110002F3F19F00196A11DB11D3FBFBA2FA92F86
:10012000982F8827820F911DA11DB11DBC01CD0103
:1001300042E0660F771F881F991F4A95D1F70895EF
:1001400080E090E0892B49F080E090E0892B29F055
:100150000E94000081110C94000008950F931F93DA
:100160002FB7F89480911E0190911F01A09120015A
:10017000B09121012FBF8093180190931901A09392
:100180001A01B0931B01409112015091130160912B
:10019000140170911501411551056105710531F08A
:1001A00021E0481759076A077B0708F020E0809193
:1001B000170181FB992790F9292B20FB81F9809366
:1001C000170140910B0150910C0160910D0170914C
:1001D0000E01411551056105710571F031E0809105
:1001E000180190911901A0911A01B0911B014817B3
:1001F00059076A077B0708F030E08091100181FB06
:10020000992790F9932B90FB81F980931001222379
:10021000E9F081E08093160180911701816080935D
:100220001701009118011091190120911A013091C4
:100230001B010093120110931301209314013093BA
:100240001501809106018460809306019923F1F1E4
:10025000E0911C01009118011091190120911A01DF
:1002600030911B01D901C80186509F4FAF4FBF4F3E
:10027000411551056105710531F0401751076207BD
:10028000730708F411C1EE23A1F0409107015091CA
:1002900008016091090170910A0140175107620736
:1002A000730708F4E7C084179507A607B70708F493
:1002B000E1C09091100191708091020181FB222791
:1002C00020F9922B90FB81F9809302018091020129
:1002D00081FF1CC0209101019091100190FF09C085
:1002E00091E09227921729F0909301018160809309
:1002F00002019091020191708091060182FB2227F8
:1003000020F9922B90FB82F98093060180910601DF
:1003100082FF6CC0609101018091170180FF66C06F
:100320004DE950E0FA01749189E890E0FC012491D4
:10033000222399F030E0220F331FF901E859FF4FD3
:10034000A591B4912E583F4FF901059114912FB703
:10035000F8943C91732B7C932FBFE1EBF0E0249158
:10036000FA014491FC019491992309F43CC02223A1
:1003700039F1233091F038F42130A9F0223001F521
:1003800084B58F7D12C0273091F02830A1F0243041
:10039000B9F4809180008F7D03C0809180008F77B9
:1003A000809380000DC084B58F7784BD09C0809193
:1003B000B0008F7703C08091B0008F7D8093B00034
:1003C000E92FF0E0EE0FFF1FEE58FF4FA591B4911B
:1003D0008FB7F8949C91611103C04095492301C0E7
:1003E000492B4C938FBF81E0809304011092170139
:1003F00010921001109202011092060180911201D8
:1004000090911301A0911401B09115010097A105DD
:10041000B10569F0409118015091190160911A01DC
:1004200070911B0184179507A607B707A0F180916B
:100430000B0190910C01A0910D01B0910E0100975C
:10044000A105B10509F449C0409118015091190165
:1004500060911A0170911B0184179507A607B707D1
:10046000E0F510920B0110920C0110920D01109208
:100470000E0133C08093070190930801A0930901F6
:10048000B0930A0180930B0190930C01A0930D018E
:10049000B0930E010ECF1092120110921301109220
:1004A000140110921501C3CF41E040930F01409118
:1004B000100141604093100180930701909308015F
:1004C000A0930901B0930A0180930B0190930C0152
:1004D000A0930D01B0930E01D6CE1F910F910895F8
:1004E0001F920F920FB60F9211242F933F938F9369
:1004F0009F93AF93BF9380911E0190911F01A09194
:100500002001B091210130911D0123E0230F2D37EF
:1005100020F40196A11DB11D05C026E8230F029607
:10052000A11DB11D20931D0180931E0190931F01F9
:10053000A0932001B0932101809122019091230189
:10054000A0912401B09125010196A11DB11D8093B8
:10055000220190932301A0932401B0932501BF9120
:10056000AF919F918F913F912F910F900FBE0F9060
:100570001F901895789484B5826084BD84B581609D
:1005800084BD85B5826085BD85B5816085BD80915E
:100590006E00816080936E001092810080918100D6
:1005A00082608093810080918100816080938100CE
:1005B000809180008160809380008091B100846090
:1005C0008093B1008091B00081608093B0008091F1
:1005D0007A00846080937A0080917A0082608093B0
:1005E0007A0080917A00816080937A0080917A000D
:1005F000806880937A001092C1000E947B004B01BA
:100600005C0184E6C82ED12CE12CF12C0E947B00E9
:10061000DC01CB0188199909AA09BB09883E9340DE
:10062000A105B10558F021E0C21AD108E108F1088E
:1006300088EE880E83E0981EA11CB11CC114D10461
:10064000E104F10419F781E080931C010E94AE00DF
:1006500010921C010E94AE000E94A000FBCFF894F3
:02066000FFCFCA
:100662000000030000000400000000000000000081
:0806720002000000000000027C
:00000001FF
