:100000000C945C000C9479000C9479000C947900A9
:100010000C9479000C9479000C9479000C9479007C
:100020000C9479000C9479000C9479000C9479006C
:100030000C9479000C9479000C9479000C9479005C
:100040000C940B020C9479000C9479000C947900B8
:100050000C9479000C9479000C9479000C9479003C
:100060000C9479000C947900000000080002010053
:100070000003040700000000000000000000000072
:10008000250028002B0000000000240027002A0083
:10009000040404040404040402020202020203032E
:1000A0000303030301020408102040800102040836
:1000B000102001020408102011241FBECFEFD8E049
:1000C000DEBFCDBF11E0A0E0B1E0EAE9F5E002C09B
:1000D00005900D92A031B107D9F721E0A0E1B1E080
:1000E00001C01D92AD31B207E1F70E9455020C9498
:1000F000CB020C9400003FB7F894809119019091C5
:100100001A01A0911B01B0911C0126B5A89B05C046
:100110002F3F19F00196A11DB11D3FBFBA2FA92F86
:10012000982F8827820F911DA11DB11DBC01CD0103
:1001300042E0660F771F881F991F4A95D1F70895EF
:10014000CF92DF92EF92FF920F931F939FB7F89495
:10015000409115015091160160911701709118019D
:100160009FBF40931001509311016093120170934F
:100170001301C0900A01D0900B01E0900C01F090A7
:100180000D01C114D104E104F10431F031E0C416D1
:10019000D506E606F70608F030E090910F0191FBD6
:1001A000222720F9232B20FB91F990930F01222382
:1001B00009F443C000911001109111012091120126
:1001C00030911301B901A80146505F4F6F4F7F4F27
:1001D0008823A1F08091060190910701A091080168
:1001E000B091090180179107A207B30708F4E2C094
:1001F000481759076A077B0708F4DCC080910A0199
:1002000090910B01A0910C01B0910D010097A105F7
:10021000B10531F080179107A207B30708F4DBC0DE
:1002200090910F0191708091050181FB222720F9A7
:10023000922B90FB81F9809305018091050181FF4C
:100240001CC09091040180910F0180FF03C081E0E8
:10025000892701C080E0891739F0809304018091DB
:100260000501816080930501909105018091020153
:10027000982B90FB80F9809302018091020180FF0E
:1002800070C02091040180910001909101010D97AF
:1002900009F1E1EBF0E03491EDE9F0E0849188239D
:1002A00099F090E0880F991FFC01EA57FF4FA59144
:1002B000B491FC01E458FF4F859194918FB7F89465
:1002C000EC91E32BEC938FBF8DE090E090930101D4
:1002D00080930001E5E7F0E09491E1EBF0E0849198
:1002E000EDE9F0E0E491EE2309F43BC0992339F104
:1002F000933091F038F49130A9F0923001F594B533
:100300009F7D12C0973091F09830A1F09430B9F4ED
:10031000909180009F7D03C0909180009F77909383
:1003200080000DC094B59F7794BD09C09091B00036
:100330009F7703C09091B0009F7D9093B000F0E054
:10034000EE0FFF1FE458FF4FA591B4919FB7F894AB
:10035000EC91211103C080958E2301C08E2B8C93CC
:100360009FBF10920F01109205011092020180911F
:100370000A0190910B01A0910C01B0910D01009721
:10038000A105B10509F440C040911001509111013F
:10039000609112017091130184179507A607B707A2
:1003A00098F510920A0110920B0110920C01109214
:1003B0000D012AC040930601509307016093080184
:1003C0007093090140930A0150930B0160930C0153
:1003D00070930D0113CF81E080930E0180910F0186
:1003E000816080930F014093060150930701609351
:1003F00008017093090140930A0150930B01609327
:100400000C0170930D010CCF1F910F91FF90EF9095
:10041000DF90CF9008951F920F920FB60F92112484
:100420002F933F938F939F93AF93BF938091150129
:1004300090911601A0911701B0911801309114010B
:1004400023E0230F2D3720F40196A11DB11D05C017
:1004500026E8230F0296A11DB11D2093140180935D
:10046000150190931601A0931701B0931801809184
:10047000190190911A01A0911B01B0911C010196E4
:10048000A11DB11D8093190190931A01A0931B0126
:10049000B0931C01BF91AF919F918F913F912F918C
:1004A0000F900FBE0F901F901895789484B58260BE
:1004B00084BD84B5816084BD85B5826085BD85B508
:1004C000816085BD80916E00816080936E00109286
:1004D0008100809181008260809381008091810001
:1004E0008160809381008091800081608093800092
:1004F0008091B10084608093B1008091B0008160F0
:100500008093B00080917A00846080937A0080911B
:100510007A00826080937A0080917A008160809373
:100520007A0080917A00806880937A001092C100EE
:100530000E947B004B015C0184E6C82ED12CE12C8B
:10054000F12C0E947B00DC01CB0188199909AA09D2
:10055000BB09883E9340A105B10558F021E0C21ABD
:10056000D108E108F10888EE880E83E0981EA11CEE
:10057000B11CC114D104E104F10419F781E00E9417
:10058000A000C0E0D0E080E00E94A0002097D9F356
:0A0590000E940000F8CFF894FFCF9E
:10059A00FFFF01000003000000000000000000024D
:00000001FF
