:100000000C947E000C949B000C949B000C949B0021
:100010000C949B000C949B000C949B000C949B00F4
:100020000C949B000C949B000C949B000C949B00E4
:100030000C949B000C949B000C949B000C949B00D4
:100040000C94CD020C949B000C949B000C949B0090
:100050000C949B000C949B000C949B000C949B00B4
:100060000C949B000C949B0004FF03FF04FF02FF11
:100070004B01010800030800A202FF00000220005B
:10008000FF000068000D02000800FF00006A00C2C7
:10009000006C00C2006E0000000000240027002A4F
:1000A0000000000000250028002B000404040404C4
:1000B0000404040202020202020303030303030115
:1000C00002040810204080010204081020010204EC
:1000D00008102000000008000201000003040700CF
:1000E0000000000000000093008F00850078007081
:1000F00000070102011401120100010011241FBEBA
:10010000CFEFD8E0DEBFCDBF11E0A0E0B1E0E6E187
:10011000FAE002C005900D92A231B107D9F721E0B3
:10012000A2E1B1E001C01D92AA33B207E1F70E943B
:1001300017030C9409050C9400003FB7F8948091C4
:10014000360190913701A0913801B091390126B55F
:10015000A89B05C02F3F19F00196A11DB11D3FBFFF
:10016000BA2FA92F982F8827820F911DA11DB11D8D
:10017000BC01CD0142E0660F771F881F991F4A9589
:10018000D1F7089508950F931F93CF93DF9300D075
:10019000CDB7DEB790E0DC01AA0FBB1FFD01EF5029
:1001A000FF4F05911491F801E60FF71F2083FC0122
:1001B000E45FFE4F808182608083FD01E951FF4F43
:1001C00065917491640F751F42E050E0CE01019675
:1001D0000E94000529813A81F901859194918F3F10
:1001E00069F0E82FF0E0E45FFE4F8081816080835A
:1001F000F901859194912F5F3F4FF1CF0F900F90B0
:10020000DF91CF911F910F910895CF93DF9300D08D
:100210001F92CDB7DEB7E82FF0E0EE0FFF1FE951D8
:10022000FF4F85919491680F791F43E050E0CE0114
:1002300001960E94000569817A818B810F900F9051
:100240000F90DF91CF91089562E070E00E94050168
:100250006F3FE9F0E62FF0E0EE0FFF1FEF50FF4F8A
:1002600045915491769576957695982F9295990F1C
:10027000907E292F272B382F369536953695FA0103
:10028000E20FF31F6081718182819381089560E0A4
:1002900070E0CB010895FF920F931F93CF93DF93EC
:1002A000F82EE82FF0E0EE0FFF1FEF50FF4F059103
:1002B00014910E9424010E940C04F80120813181D4
:1002C000EB01DD272617370709F1FE01E154FF4F47
:1002D0004491FE01E555FF4F24912223A1F030E027
:1002E000220F331FF901E956FF4FA591B491F9018F
:1002F000EF55FF4F259134912FB7F894EC913E2F95
:10030000342B3C932FBFF8017183608365E070E06C
:100310008F2D0E9405016F3FD1F0E62FF0E0EE0F28
:10032000FF1FEF50FF4F4591549176957695769546
:10033000982F9295990F907E292F272B382F36953D
:1003400036953695FA01E20FF31F208101C020E0B7
:10035000FE01ED52FF4F9491FE01E154FF4F849155
:10036000FE01E555FF4FE491EE2309F43BC09923CC
:1003700039F1933091F038F49130A9F0923001F5D1
:1003800094B59F7D12C0973091F09830A1F09430D1
:10039000B9F4909180009F7D03C0909180009F7779
:1003A000909380000DC094B59F7794BD09C0909143
:1003B000B0009F7703C09091B0009F7D9093B000F4
:1003C000F0E0EE0FFF1FEF55FF4FA591B4919FB7DF
:1003D000F894EC91211103C080958E2301C08E2BDF
:1003E0008C939FBFDF91CF911F910F91FF90089544
:1003F0000E9405016F3F79F0E62FF0E0E45FFE4FC9
:10040000808190E077707F5F02C0959587957A959F
:10041000E2F78170089580E008953F924F925F92D5
:100420006F927F928F929F92AF92BF92CF92DF9204
:10043000EF92FF920F931F93CF93DF93382EC82F25
:10044000D0E0FE01EE0FFF1FEF50FF4F059114911A
:1004500080902D0190902E01A0902F01B09030013E
:100460000E94240120E030E04AE754E40E946B043B
:100470000E9413046B017C012B013C01480C591CA8
:100480006A1C7B1C65E070E0832D0E94F8018823C4
:1004900021F1F801C114D104E104F10479F41082CE
:1004A000118212821382CC0FDD1FCC0FDD1FC75EBD
:1004B000DE4F188219821A821B8232C0808191819C
:1004C000A281B38188159905AA05BB0570F048166D
:1004D00059066A067B0620F508C021E048E050E096
:1004E00064E070E0832D0E94C300F80140825182D5
:1004F00062827382CC0FDD1FCC0FDD1FC75EDE4F23
:1005000080912D0190912E01A0912F01B091300189
:10051000C80ED91EEA1EFB1EC882D982EA82FB825F
:10052000DF91CF911F910F91FF90EF90DF90CF90CF
:10053000BF90AF909F908F907F906F905F904F9003
:100540003F900895CF93DF93C82FE82FF0E0EE0F90
:10055000FF1FEF50FF4FA591B4911196DC9165E01C
:1005600070E08C2F0E94F801882319F021E02D27DC
:1005700006C062E070E08C2F0E94F801282F2D1732
:1005800049F04BE050E061E070E08C2FDF91CF91BB
:100590000C94C300DF91CF9108951F920F920FB674
:1005A0000F9211242F933F938F939F93AF93BF93F9
:1005B0008091320190913301A0913401B0913501C5
:1005C0003091310123E0230F2D3720F40196A11D36
:1005D000B11D05C026E8230F0296A11DB11D209371
:1005E00031018093320190933301A0933401B09391
:1005F00035018091360190913701A0913801B09179
:1006000039010196A11DB11D8093360190933701E8
:10061000A0933801B0933901BF91AF919F918F9111
:100620003F912F910F900FBE0F901F901895CF9371
:10063000DF9300D0CDB7DEB7789484B5826084BDF7
:1006400084B5816084BD85B5826085BD85B58160D6
:1006500085BD80916E00816080936E001092810054
:10066000809181008260809381008091810081600F
:1006700080938100809180008160809380008091D0
:10068000B10084608093B1008091B000816080935C
:10069000B00080917A00846080937A0080917A0023
:1006A000826080937A0080917A00816080937A00E2
:1006B00080917A00806880937A001092C1000E9435
:1006C0009D004B015C0154E6C52ED12CE12CF12C90
:1006D0000E949D00DC01CB0188199909AA09BB0978
:1006E000883E9340A105B10558F021E0C21AD10817
:1006F000E108F10888EE880E83E0981EA11CB11C69
:10070000C114D104E104F10419F73CE0C32E31E037
:10071000D32E05E00C0D40E0842E40E0942E8FB7E0
:10072000F894409032015090330160903401709001
:1007300035018FBF99E1E92E91E0F92E2CE0A22E30
:1007400021E0B22EF501D7014D915D916D917D9122
:10075000411551056105710541F0441555056605C2
:10076000770518F480818160808331960E13ECCF79
:100770002FB7F8948091320190913301A091340108
:10078000B09135012FBF80932D0190932E01A0933E
:100790002F01B093300187EE682E80E0782E10E0B4
:1007A000F50181915F0180FF23C0F3016591749190
:1007B00042E050E0CE0101960E940005E981FA81F5
:1007C000812F0995F7014081518162817381809168
:1007D0002D0190912E01A0912F01B0913001481769
:1007E00059076A077B0720F4108211821282138254
:1007F0001F5FF4E0EF0EF11C22E0620E711C153059
:1008000079F6F60111921A95E9F78114910409F429
:1008100086CF0E94000083CF0E9413046894B11118
:100820000C94650408950E944A0488F09F5798F03C
:10083000B92F9927B751B0F0E1F0660F771F881FE5
:10084000991F1AF0BA95C9F714C0B13091F00E94FF
:100850006404B1E008950C946404672F782F88270E
:10086000B85F39F0B93FCCF3869577956795B39526
:10087000D9F73EF490958095709561957F4F8F4F95
:100880009F4F089557FD9058440F551F59F05F3FF3
:1008900071F04795880F97FB991F61F09F3F79F0A2
:1008A00087950895121613061406551FF2CF469524
:1008B000F1DF08C0161617061806991FF1CF8695A6
:1008C0007105610508940895E894BB27662777278A
:1008D000CB0197F908950E947E040C94EF040E94C6
:1008E000E10438F00E94E80420F0952311F00C9404
:1008F000D8040C94DE0411240C9465040E94420474
:1009000070F3959FC1F3950F50E0551F629FF00162
:10091000729FBB27F00DB11D639FAA27F00DB11D7B
:10092000AA1F649F6627B00DA11D661F829F222704
:10093000B00DA11D621F739FB00DA11D621F839F8B
:10094000A00D611D221F749F3327A00D611D231F61
:10095000849F600D211D822F762F6A2F11249F57AF
:1009600050409AF0F1F088234AF0EE0FFF1FBB1FB2
:10097000661F771F881F91505040A9F79E3F510571
:1009800080F00C94D8040C9465045F3FE4F3983E27
:10099000D4F3869577956795B795F795E7959F5F1B
:1009A000C1F7FE2B880F911D9695879597F90895AD
:1009B00097F99F6780E870E060E008959FEF80EC12
:1009C000089500240A9416161706180609060895B5
:1009D00000240A9412161306140605060895092E1B
:1009E0000394000C11F4882352F0BB0F40F4BF2B8A
:1009F00011F460FF04C06F5F7F4F8F4F9F4F0895CA
:100A0000FB01DC0102C005900D9241505040D8F727
:060A10000895F894FFCFE9
:100A1600FFFF0000005041000000803EFFFFFDFF89
:020A2600FF00CF
:00000001FF
