:100000000C945C000C9479000C9479000C947900A9
:100010000C9479000C9479000C9479000C9479007C
:100020000C9479000C9479000C9479000C9479006C
:100030000C9479000C9479000C9479000C9479005C
:100040000C945C020C9479000C9479000C94790067
:100050000C9479000C9479000C9479000C9479003C
:100060000C9479000C947900000000002400270013
:100070002A0000000000250028002B0004040404CE
:100080000404040402020202020203030303030342
:10009000010204081020408001020408102001021F
:1000A00004081020000000080002010000030407FB
:1000B000000000000000000011241FBECFEFD8E0B8
:1000C000DEBFCDBF11E0A0E0B1E0EAE3F6E002C0A0
:1000D00005900D92A831B107D9F721E0A8E1B1E070
:1000E00001C01D92A632B207E1F70E94A6020C944D
:1000F0001B030C9400003FB7F8948091220190916B
:100100002301A0912401B091250126B5A89B05C02B
:100110002F3F19F00196A11DB11D3FBFBA2FA92F86
:10012000982F8827820F911DA11DB11DBC01CD0103
:1001300042E0660F771F881F991F4A95D1F70895EF
:1001400080E090E0892B49F080E090E0892B29F055
:100150000E94000081110C94000008950F931F93DA
:10016000FC01448155816681778141155105610506
:10017000710571F081E00091180110911901209131
:100180001A0130911B01401751076207730708F0ED
:1001900080E01F910F9108958F929F92AF92BF922E
:1001A000CF92DF92EF92FF92CF93DF938FB7F894C5
:1001B00080901E0190901F01A0902001B09021011D
:1001C0008FBF8092180190921901A0921A01B092EB
:1001D0001B01409112015091130160911401709123
:1001E0001501411551056105710531F081E0481592
:1001F00059056A057B0508F080E0C0911701C1FB35
:10020000DD27D0F9D82BD0FBC1F9C093170187E0C7
:1002100091E00E94AE009091100191FB222720F9FD
:10022000822B80FB91F990931001DD2399F091E0EE
:1002300090931601C160C0931701809212019092B1
:100240001301A0921401B0921501909106019460DF
:1002500090930601882391F1C0911C0175016401FE
:100260008AEFC80ED11CE11CF11C87E091E00E94CE
:10027000AE008111E3C0CC23A1F0809107019091E1
:100280000801A0910901B0910A0188159905AA05F4
:10029000BB0508F4ECC0C816D906EA06FB0608F44C
:1002A000E6C08091020181FB222720F99091100184
:1002B0009170922B90FB81F9809302018091020151
:1002C00081FF1CC09091100190FF0BC02091010193
:1002D00091E09227291729F0909301018160809382
:1002E00002018091060182FB222720F990910201F0
:1002F0009170922B90FB82F9809306018091060108
:1003000082FF6CC0609101018091170180FF66C07F
:100310004DE950E0FA01749189E890E0FC012491E4
:10032000222399F030E0220F331FF901E859FF4FE3
:10033000A591B491F901EE58FF4F259134913FB743
:10034000F8942C91272B2C933FBFE1EBF0E0249104
:10035000FA014491FC019491992309F43CC02223B1
:1003600039F1233091F038F42130A9F0223001F531
:1003700084B58F7D12C0273091F02830A1F0243051
:10038000B9F4809180008F7D03C0809180008F77C9
:10039000809380000DC084B58F7784BD09C08091A3
:1003A000B0008F7703C08091B0008F7D8093B00044
:1003B000E92FF0E0EE0FFF1FEE58FF4FA591B4912B
:1003C0009FB7F8948C91611103C04095482301C0F8
:1003D000482B4C939FBF81E080930401109217013A
:1003E00010921001109202011092060180911201E8
:1003F00090911301A0911401B09115010097A105EE
:10040000B10569F0409118015091190160911A01EC
:1004100070911B0184179507A607B707C8F187E0FD
:1004200091E00E94AE008823E1F110920B0110923E
:100430000C0110920D0110920E0133C081E08093E7
:100440000F0180911001816080931001C09207011B
:10045000D0920801E0920901F0920A01C0920B01CA
:10046000D0920C01E0920D01F0920E0104CFC092E7
:100470000701D0920801E0920901F0920A01C092AE
:100480000B01D0920C01E0920D01F0920E0109CF08
:100490001092120110921301109214011092150182
:1004A000BECFDF91CF91FF90EF90DF90CF90BF90C4
:1004B000AF909F908F9008951F920F920FB60F925A
:1004C00011242F933F938F939F93AF93BF9380916A
:1004D0001E0190911F01A0912001B0912101309146
:1004E0001D0123E0230F2D3720F40196A11DB11D1E
:1004F00005C026E8230F0296A11DB11D20931D0102
:1005000080931E0190931F01A0932001B0932101BD
:100510008091220190912301A0912401B0912501A5
:100520000196A11DB11D8093220190932301A093F8
:100530002401B0932501BF91AF919F918F913F917D
:100540002F910F900FBE0F901F901895789484B53F
:10055000826084BD84B5816084BD85B5826085BDBF
:1005600085B5816085BD80916E00816080936E004D
:10057000109281008091810082608093810080913F
:1005800081008160809381008091800081608093F0
:1005900080008091B10084608093B1008091B000B0
:1005A00081608093B00080917A00846080937A00AB
:1005B00080917A00826080937A0080917A008160D5
:1005C00080937A0080917A00806880937A001092FC
:1005D000C1000E947B004B015C0184E6C82ED12C37
:1005E000E12CF12C0E947B00DC01CB0188199909D8
:1005F000AA09BB09883E9340A105B10598F321E003
:10060000C21AD108E108F10888EE880E83E0981E2E
:10061000A11CB11CC114D104E104F10419F781E05B
:1006200080931C010E94CC0010921C010E94CC00FF
:0A0630000E94A000FBCFF894FFCF5A
:10063A0000000300000004000000000000000000A9
:08064A000200000000000002A4
:00000001FF
